{
  "_format": "hh-sol-artifact-1",
  "contractName": "RitualForgeFactory",
  "sourceName": "contracts/RitualForgeFactory.sol",
  "abi": [
    {
      "inputs": [],
      "stateMutability": "nonpayable",
      "type": "constructor"
    },
    {
      "inputs": [
        {
          "internalType": "address",
          "name": "owner",
          "type": "address"
        }
      ],
      "name": "OwnableInvalidOwner",
      "type": "error"
    },
    {
      "inputs": [
        {
          "internalType": "address",
          "name": "account",
          "type": "address"
        }
      ],
      "name": "OwnableUnauthorizedAccount",
      "type": "error"
    },
    {
      "anonymous": false,
      "inputs": [
        {
          "indexed": true,
          "internalType": "address",
          "name": "tokenAddress",
          "type": "address"
        },
        {
          "indexed": true,
          "internalType": "address",
          "name": "creator",
          "type": "address"
        },
        {
          "indexed": false,
          "internalType": "string",
          "name": "name",
          "type": "string"
        },
        {
          "indexed": false,
          "internalType": "string",
          "name": "ticker",
          "type": "string"
        },
        {
          "indexed": true,
          "internalType": "uint256",
          "name": "agentIndex",
          "type": "uint256"
        },
        {
          "indexed": false,
          "internalType": "uint256",
          "name": "timestamp",
          "type": "uint256"
        }
      ],
      "name": "AgentLaunched",
      "type": "event"
    },
    {
      "anonymous": false,
      "inputs": [
        {
          "indexed": false,
          "internalType": "uint256",
          "name": "oldFee",
          "type": "uint256"
        },
        {
          "indexed": false,
          "internalType": "uint256",
          "name": "newFee",
          "type": "uint256"
        }
      ],
      "name": "LaunchFeeUpdated",
      "type": "event"
    },
    {
      "anonymous": false,
      "inputs": [
        {
          "indexed": true,
          "internalType": "address",
          "name": "previousOwner",
          "type": "address"
        },
        {
          "indexed": true,
          "internalType": "address",
          "name": "newOwner",
          "type": "address"
        }
      ],
      "name": "OwnershipTransferred",
      "type": "event"
    },
    {
      "inputs": [
        {
          "internalType": "address",
          "name": "",
          "type": "address"
        },
        {
          "internalType": "uint256",
          "name": "",
          "type": "uint256"
        }
      ],
      "name": "agentsByCreator",
      "outputs": [
        {
          "internalType": "address",
          "name": "",
          "type": "address"
        }
      ],
      "stateMutability": "view",
      "type": "function"
    },
    {
      "inputs": [
        {
          "internalType": "uint256",
          "name": "",
          "type": "uint256"
        }
      ],
      "name": "allAgents",
      "outputs": [
        {
          "internalType": "address",
          "name": "tokenAddress",
          "type": "address"
        },
        {
          "internalType": "address",
          "name": "creator",
          "type": "address"
        },
        {
          "internalType": "string",
          "name": "name",
          "type": "string"
        },
        {
          "internalType": "string",
          "name": "ticker",
          "type": "string"
        },
        {
          "internalType": "string",
          "name": "prompt",
          "type": "string"
        },
        {
          "internalType": "string",
          "name": "marketCap",
          "type": "string"
        },
        {
          "internalType": "uint256",
          "name": "launchTime",
          "type": "uint256"
        }
      ],
      "stateMutability": "view",
      "type": "function"
    },
    {
      "inputs": [
        {
          "internalType": "uint256",
          "name": "_from",
          "type": "uint256"
        },
        {
          "internalType": "uint256",
          "name": "_count",
          "type": "uint256"
        }
      ],
      "name": "getAgents",
      "outputs": [
        {
          "components": [
            {
              "internalType": "address",
              "name": "tokenAddress",
              "type": "address"
            },
            {
              "internalType": "address",
              "name": "creator",
              "type": "address"
            },
            {
              "internalType": "string",
              "name": "name",
              "type": "string"
            },
            {
              "internalType": "string",
              "name": "ticker",
              "type": "string"
            },
            {
              "internalType": "string",
              "name": "prompt",
              "type": "string"
            },
            {
              "internalType": "string",
              "name": "marketCap",
              "type": "string"
            },
            {
              "internalType": "uint256",
              "name": "launchTime",
              "type": "uint256"
            }
          ],
          "internalType": "struct RitualForgeFactory.AgentInfo[]",
          "name": "",
          "type": "tuple[]"
        }
      ],
      "stateMutability": "view",
      "type": "function"
    },
    {
      "inputs": [
        {
          "internalType": "address",
          "name": "_creator",
          "type": "address"
        }
      ],
      "name": "getAgentsByCreator",
      "outputs": [
        {
          "internalType": "address[]",
          "name": "",
          "type": "address[]"
        }
      ],
      "stateMutability": "view",
      "type": "function"
    },
    {
      "inputs": [
        {
          "internalType": "string",
          "name": "_name",
          "type": "string"
        },
        {
          "internalType": "string",
          "name": "_ticker",
          "type": "string"
        },
        {
          "internalType": "string",
          "name": "_prompt",
          "type": "string"
        },
        {
          "internalType": "string",
          "name": "_marketCap",
          "type": "string"
        }
      ],
      "name": "launchAgent",
      "outputs": [
        {
          "internalType": "address",
          "name": "",
          "type": "address"
        }
      ],
      "stateMutability": "payable",
      "type": "function"
    },
    {
      "inputs": [],
      "name": "launchFee",
      "outputs": [
        {
          "internalType": "uint256",
          "name": "",
          "type": "uint256"
        }
      ],
      "stateMutability": "view",
      "type": "function"
    },
    {
      "inputs": [],
      "name": "owner",
      "outputs": [
        {
          "internalType": "address",
          "name": "",
          "type": "address"
        }
      ],
      "stateMutability": "view",
      "type": "function"
    },
    {
      "inputs": [],
      "name": "renounceOwnership",
      "outputs": [],
      "stateMutability": "nonpayable",
      "type": "function"
    },
    {
      "inputs": [
        {
          "internalType": "uint256",
          "name": "_newFee",
          "type": "uint256"
        }
      ],
      "name": "setLaunchFee",
      "outputs": [],
      "stateMutability": "nonpayable",
      "type": "function"
    },
    {
      "inputs": [],
      "name": "totalAgents",
      "outputs": [
        {
          "internalType": "uint256",
          "name": "",
          "type": "uint256"
        }
      ],
      "stateMutability": "view",
      "type": "function"
    },
    {
      "inputs": [
        {
          "internalType": "address",
          "name": "newOwner",
          "type": "address"
        }
      ],
      "name": "transferOwnership",
      "outputs": [],
      "stateMutability": "nonpayable",
      "type": "function"
    },
    {
      "inputs": [],
      "name": "withdrawFees",
      "outputs": [],
      "stateMutability": "nonpayable",
      "type": "function"
    },
    {
      "stateMutability": "payable",
      "type": "receive"
    }
  ],
  "bytecode": "0x608060405266038d7ea4c6800060015534801561001b57600080fd5b50338061004257604051631e4fbdf760e01b81526000600482015260240160405180910390fd5b61004b81610051565b506100a1565b600080546001600160a01b038381166001600160a01b0319831681178455604051919092169283917f8be0079c531659141344cd1fd0a4f28419497f9722a3daafe3b4186f6b6457e09190a35050565b612ba2806100b06000396000f3fe608060405260043610620000b95760003560e01c8063be5d5d9b116200006c578063be5d5d9b1462000196578063c505371214620001ca578063cf3cf57314620001eb578063e0bb12f71462000203578063e246578c146200023d578063f2fde38b146200027157600080fd5b80631a3f1af514620000c6578063476343ee14620001085780635313be2c1462000122578063715018a61462000147578063804a3cb6146200015f5780638da5cb5b146200017657600080fd5b36620000c157005b600080fd5b348015620000d357600080fd5b50620000eb620000e53660046200106d565b62000296565b6040516001600160a01b0390911681526020015b60405180910390f35b3480156200011557600080fd5b5062000120620002cf565b005b3480156200012f57600080fd5b5062000120620001413660046200109a565b620003c0565b3480156200015457600080fd5b50620001206200040b565b620000eb6200017036600462001100565b62000423565b3480156200018357600080fd5b506000546001600160a01b0316620000eb565b348015620001a357600080fd5b50620001bb620001b5366004620011d1565b6200082c565b604051620000ff91906200123c565b348015620001d757600080fd5b506002545b604051908152602001620000ff565b348015620001f857600080fd5b50620001dc60015481565b3480156200021057600080fd5b5062000228620002223660046200109a565b62000c6a565b604051620000ff97969594939291906200133f565b3480156200024a57600080fd5b50620002626200025c366004620013c2565b62000f07565b604051620000ff9190620013e7565b3480156200027e57600080fd5b506200012062000290366004620013c2565b62000f7f565b60036020528160005260406000208181548110620002b357600080fd5b6000918252602090912001546001600160a01b03169150829050565b620002d962000fc3565b4780620003235760405162461bcd60e51b81526020600482015260136024820152724e6f7468696e6720746f20776974686472617760681b60448201526064015b60405180910390fd5b600080546040516001600160a01b039091169083908381818185875af1925050503d806000811462000372576040519150601f19603f3d011682016040523d82523d6000602084013e62000377565b606091505b5050905080620003bc5760405162461bcd60e51b815260206004820152600f60248201526e15da5d1a191c985dc819985a5b1959608a1b60448201526064016200031a565b5050565b620003ca62000fc3565b60015460408051918252602082018390527f0fd958ac60db1437ae35514054402c4e597e81881e4b6dd47a6509bd89121428910160405180910390a1600155565b6200041562000fc3565b62000421600062000ff2565b565b6000600154341015620004795760405162461bcd60e51b815260206004820152601760248201527f496e73756666696369656e74206c61756e63682066656500000000000000000060448201526064016200031a565b87620004b85760405162461bcd60e51b815260206004820152600d60248201526c13985b59481c995c5d5a5c9959609a1b60448201526064016200031a565b85620004f95760405162461bcd60e51b815260206004820152600f60248201526e151a58dad95c881c995c5d5a5c9959608a1b60448201526064016200031a565b600033905060008a8a8a8a33868c8c8c8c604051620005189062001042565b6200052d9a999897969594939291906200145f565b604051809103906000f0801580156200054a573d6000803e3d6000fd5b50905060006040518060e00160405280836001600160a01b03168152602001336001600160a01b031681526020018d8d8080601f016020809104026020016040519081016040528093929190818152602001838380828437600092019190915250505090825250604080516020601f8e018190048102820181019092528c815291810191908d908d9081908401838280828437600092019190915250505090825250604080516020601f8c018190048102820181019092528a815291810191908b908b9081908401838280828437600092019190915250505090825250604080516020601f8a0181900481028201810190925288815291810191908990899081908401838280828437600092018290525093855250504260209384015250600280546001810182559152825160079091027f405787fa12a823e0f2b7631cc41b3ba8828b3321ca811111fa75cd3aa3bb5ace810180546001600160a01b039384166001600160a01b0319918216178255938501517f405787fa12a823e0f2b7631cc41b3ba8828b3321ca811111fa75cd3aa3bb5acf8301805491909416941693909317909155604083015192935083927f405787fa12a823e0f2b7631cc41b3ba8828b3321ca811111fa75cd3aa3bb5ad0909101906200072b908262001585565b506060820151600382019062000742908262001585565b506080820151600482019062000759908262001585565b5060a0820151600582019062000770908262001585565b5060c091909101516006909101553360009081526003602090815260408220805460018082018355918452919092200180546001600160a01b0319166001600160a01b038516179055600254620007c8919062001668565b336001600160a01b0316836001600160a01b03167f0592c90048b6c2ecd40709d7155152159c69567cf312b518df31393c859a15ce8f8f8f8f42604051620008159594939291906200167e565b60405180910390a4509a9950505050505050505050565b6002546060908310620008775760405162461bcd60e51b8152602060048201526012602482015271496e646578206f7574206f662072616e676560701b60448201526064016200031a565b6000620008858385620016bc565b6002549091508111156200089857506002545b6000620008a6858362001668565b67ffffffffffffffff811115620008c157620008c1620014e0565b6040519080825280602002602001820160405280156200094757816020015b620009336040518060e0016040528060006001600160a01b0316815260200160006001600160a01b0316815260200160608152602001606081526020016060815260200160608152602001600081525090565b815260200190600190039081620008e05790505b509050845b8281101562000c5f57600281815481106200096b576200096b620016d2565b60009182526020918290206040805160e081018252600790930290910180546001600160a01b0390811684526001820154169383019390935260028301805492939291840191620009bc90620014f6565b80601f0160208091040260200160405190810160405280929190818152602001828054620009ea90620014f6565b801562000a3b5780601f1062000a0f5761010080835404028352916020019162000a3b565b820191906000526020600020905b81548152906001019060200180831162000a1d57829003601f168201915b5050505050815260200160038201805462000a5690620014f6565b80601f016020809104026020016040519081016040528092919081815260200182805462000a8490620014f6565b801562000ad55780601f1062000aa95761010080835404028352916020019162000ad5565b820191906000526020600020905b81548152906001019060200180831162000ab757829003601f168201915b5050505050815260200160048201805462000af090620014f6565b80601f016020809104026020016040519081016040528092919081815260200182805462000b1e90620014f6565b801562000b6f5780601f1062000b435761010080835404028352916020019162000b6f565b820191906000526020600020905b81548152906001019060200180831162000b5157829003601f168201915b5050505050815260200160058201805462000b8a90620014f6565b80601f016020809104026020016040519081016040528092919081815260200182805462000bb890620014f6565b801562000c095780601f1062000bdd5761010080835404028352916020019162000c09565b820191906000526020600020905b81548152906001019060200180831162000beb57829003601f168201915b5050505050815260200160068201548152505082878362000c2b919062001668565b8151811062000c3e5762000c3e620016d2565b6020026020010181905250808062000c5690620016e8565b9150506200094c565b509150505b92915050565b6002818154811062000c7b57600080fd5b60009182526020909120600790910201805460018201546002830180546001600160a01b03938416955092909116929162000cb690620014f6565b80601f016020809104026020016040519081016040528092919081815260200182805462000ce490620014f6565b801562000d355780601f1062000d095761010080835404028352916020019162000d35565b820191906000526020600020905b81548152906001019060200180831162000d1757829003601f168201915b50505050509080600301805462000d4c90620014f6565b80601f016020809104026020016040519081016040528092919081815260200182805462000d7a90620014f6565b801562000dcb5780601f1062000d9f5761010080835404028352916020019162000dcb565b820191906000526020600020905b81548152906001019060200180831162000dad57829003601f168201915b50505050509080600401805462000de290620014f6565b80601f016020809104026020016040519081016040528092919081815260200182805462000e1090620014f6565b801562000e615780601f1062000e355761010080835404028352916020019162000e61565b820191906000526020600020905b81548152906001019060200180831162000e4357829003601f168201915b50505050509080600501805462000e7890620014f6565b80601f016020809104026020016040519081016040528092919081815260200182805462000ea690620014f6565b801562000ef75780601f1062000ecb5761010080835404028352916020019162000ef7565b820191906000526020600020905b81548152906001019060200180831162000ed957829003601f168201915b5050505050908060060154905087565b6001600160a01b03811660009081526003602090815260409182902080548351818402810184019094528084526060939283018282801562000f7357602002820191906000526020600020905b81546001600160a01b0316815260019091019060200180831162000f54575b50505050509050919050565b62000f8962000fc3565b6001600160a01b03811662000fb557604051631e4fbdf760e01b8152600060048201526024016200031a565b62000fc08162000ff2565b50565b6000546001600160a01b03163314620004215760405163118cdaa760e01b81523360048201526024016200031a565b600080546001600160a01b038381166001600160a01b0319831681178455604051919092169283917f8be0079c531659141344cd1fd0a4f28419497f9722a3daafe3b4186f6b6457e09190a35050565b611468806200170583390190565b80356001600160a01b03811681146200106857600080fd5b919050565b600080604083850312156200108157600080fd5b6200108c8362001050565b946020939093013593505050565b600060208284031215620010ad57600080fd5b5035919050565b60008083601f840112620010c757600080fd5b50813567ffffffffffffffff811115620010e057600080fd5b602083019150836020828501011115620010f957600080fd5b9250929050565b6000806000806000806000806080898b0312156200111d57600080fd5b883567ffffffffffffffff808211156200113657600080fd5b620011448c838d01620010b4565b909a50985060208b01359150808211156200115e57600080fd5b6200116c8c838d01620010b4565b909850965060408b01359150808211156200118657600080fd5b620011948c838d01620010b4565b909650945060608b0135915080821115620011ae57600080fd5b50620011bd8b828c01620010b4565b999c989b5096995094979396929594505050565b60008060408385031215620011e557600080fd5b50508035926020909101359150565b6000815180845260005b818110156200121c57602081850181015186830182015201620011fe565b506000602082860101526020601f19601f83011685010191505092915050565b60006020808301818452808551808352604092508286019150828160051b87010184880160005b838110156200133157888303603f19018552815180516001600160a01b031684528781015160e090620012a08a8701826001600160a01b03169052565b50878201518189870152620012b882870182620011f4565b91505060608083015186830382880152620012d48382620011f4565b9250505060808083015186830382880152620012f18382620011f4565b9250505060a080830151868303828801526200130e8382620011f4565b60c094850151979094019690965250509487019492509086019060010162001263565b509098975050505050505050565b6001600160a01b0388811682528716602082015260e0604082018190526000906200136d90830188620011f4565b8281036060840152620013818188620011f4565b90508281036080840152620013978187620011f4565b905082810360a0840152620013ad8186620011f4565b9150508260c083015298975050505050505050565b600060208284031215620013d557600080fd5b620013e08262001050565b9392505050565b6020808252825182820181905260009190848201906040850190845b818110156200142a5783516001600160a01b03168352928401929184019160010162001403565b50909695505050505050565b81835281816020850137506000828201602090810191909152601f909101601f19169091010190565b60c0815260006200147560c083018c8e62001436565b82810360208401526200148a818b8d62001436565b6001600160a01b038a811660408601528916606085015283810360808501529050620014b881878962001436565b905082810360a0840152620014cf81858762001436565b9d9c50505050505050505050505050565b634e487b7160e01b600052604160045260246000fd5b600181811c908216806200150b57607f821691505b6020821081036200152c57634e487b7160e01b600052602260045260246000fd5b50919050565b601f8211156200158057600081815260208120601f850160051c810160208610156200155b5750805b601f850160051c820191505b818110156200157c5782815560010162001567565b5050505b505050565b815167ffffffffffffffff811115620015a257620015a2620014e0565b620015ba81620015b38454620014f6565b8462001532565b602080601f831160018114620015f25760008415620015d95750858301515b600019600386901b1c1916600185901b1785556200157c565b600085815260208120601f198616915b82811015620016235788860151825594840194600190910190840162001602565b5085821015620016425787850151600019600388901b60f8161c191681555b5050505050600190811b01905550565b634e487b7160e01b600052601160045260246000fd5b8181038181111562000c645762000c6462001652565b6060815260006200169460608301878962001436565b8281036020840152620016a981868862001436565b9150508260408301529695505050505050565b8082018082111562000c645762000c6462001652565b634e487b7160e01b600052603260045260246000fd5b600060018201620016fd57620016fd62001652565b506001019056fe60c06040523480156200001157600080fd5b50604051620014683803806200146883398101604081905262000034916200040a565b838686600362000045838262000576565b50600462000054828262000576565b5050506001600160a01b0381166200008757604051631e4fbdf760e01b8152600060048201526024015b60405180910390fd5b620000928162000165565b506001600160a01b0384166080526006620000ae838262000576565b506007620000bd828262000576565b50426008819055620000d39062ed4e0062000658565b60a0526005805460ff60a01b191690556200012d836064620001036b033b2e3c9fd0803ce8000000600f62000674565b6200010f91906200068e565b62000127906b033b2e3c9fd0803ce8000000620006b1565b620001b7565b620001593060646200014d6b033b2e3c9fd0803ce8000000600f62000674565b6200012791906200068e565b505050505050620006c7565b600580546001600160a01b038381166001600160a01b0319831681179093556040519116919082907f8be0079c531659141344cd1fd0a4f28419497f9722a3daafe3b4186f6b6457e090600090a35050565b6001600160a01b038216620001e35760405163ec442f0560e01b8152600060048201526024016200007e565b620001f160008383620001f5565b5050565b6001600160a01b0383166200022457806002600082825462000218919062000658565b90915550620002989050565b6001600160a01b03831660009081526020819052604090205481811015620002795760405163391434e360e21b81526001600160a01b038516600482015260248101829052604481018390526064016200007e565b6001600160a01b03841660009081526020819052604090209082900390555b6001600160a01b038216620002b657600280548290039055620002d5565b6001600160a01b03821660009081526020819052604090208054820190555b816001600160a01b0316836001600160a01b03167fddf252ad1be2c89b69c2b068fc378daa952ba7f163c4a11628f55a4df523b3ef836040516200031b91815260200190565b60405180910390a3505050565b634e487b7160e01b600052604160045260246000fd5b600082601f8301126200035057600080fd5b81516001600160401b03808211156200036d576200036d62000328565b604051601f8301601f19908116603f0116810190828211818310171562000398576200039862000328565b81604052838152602092508683858801011115620003b557600080fd5b600091505b83821015620003d95785820183015181830184015290820190620003ba565b600093810190920192909252949350505050565b80516001600160a01b03811681146200040557600080fd5b919050565b60008060008060008060c087890312156200042457600080fd5b86516001600160401b03808211156200043c57600080fd5b6200044a8a838b016200033e565b975060208901519150808211156200046157600080fd5b6200046f8a838b016200033e565b96506200047f60408a01620003ed565b95506200048f60608a01620003ed565b94506080890151915080821115620004a657600080fd5b620004b48a838b016200033e565b935060a0890151915080821115620004cb57600080fd5b50620004da89828a016200033e565b9150509295509295509295565b600181811c90821680620004fc57607f821691505b6020821081036200051d57634e487b7160e01b600052602260045260246000fd5b50919050565b601f8211156200057157600081815260208120601f850160051c810160208610156200054c5750805b601f850160051c820191505b818110156200056d5782815560010162000558565b5050505b505050565b81516001600160401b0381111562000592576200059262000328565b620005aa81620005a38454620004e7565b8462000523565b602080601f831160018114620005e25760008415620005c95750858301515b600019600386901b1c1916600185901b1785556200056d565b600085815260208120601f198616915b828110156200061357888601518255948401946001909101908401620005f2565b5085821015620006325787850151600019600388901b60f8161c191681555b5050505050600190811b01905550565b634e487b7160e01b600052601160045260246000fd5b808201808211156200066e576200066e62000642565b92915050565b80820281158282048414176200066e576200066e62000642565b600082620006ac57634e487b7160e01b600052601260045260246000fd5b500490565b818103818111156200066e576200066e62000642565b60805160a051610d51620007176000396000818161024b015281816105a70152818161074101526107720152600081816101570152818161053a0152818161067001526106c10152610d516000f3fe608060405234801561001057600080fd5b506004361061014d5760003560e01c80638b501acc116100c3578063cc0c30391161007c578063cc0c3039146102c8578063cf9483ad146102d0578063dd62ed3e146102d8578063e74f3fbb14610311578063f0410b7c14610319578063f2fde38b1461032157600080fd5b80638b501acc1461026d5780638da5cb5b14610281578063902d55a51461029257806395d89b41146102a5578063a9059cbb146102ad578063b7cfe4c0146102c057600080fd5b8063313ce56711610115578063313ce567146101f35780633b5f19351461020257806370a082311461020a578063715018a614610233578063790ca4131461023d57806386fab45e1461024657600080fd5b806302d05d3f1461015257806306fdde0314610196578063095ea7b3146101ab57806318160ddd146101ce57806323b872dd146101e0575b600080fd5b6101797f000000000000000000000000000000000000000000000000000000000000000081565b6040516001600160a01b0390911681526020015b60405180910390f35b61019e610334565b60405161018d9190610b47565b6101be6101b9366004610bb1565b6103c6565b604051901515815260200161018d565b6002545b60405190815260200161018d565b6101be6101ee366004610bdb565b6103e0565b6040516012815260200161018d565b61019e610404565b6101d2610218366004610c17565b6001600160a01b031660009081526020819052604090205490565b61023b610492565b005b6101d260085481565b6101d27f000000000000000000000000000000000000000000000000000000000000000081565b6005546101be90600160a01b900460ff1681565b6005546001600160a01b0316610179565b6101d26b033b2e3c9fd0803ce800000081565b61019e6104a6565b6101be6102bb366004610bb1565b6104b5565b61019e6104c3565b6101d26104d0565b6101d26104f6565b6101d26102e6366004610c39565b6001600160a01b03918216600090815260016020908152604080832093909416825291909152205490565b61023b61052f565b6101d261073d565b61023b61032f366004610c17565b61079b565b60606003805461034390610c6c565b80601f016020809104026020016040519081016040528092919081815260200182805461036f90610c6c565b80156103bc5780601f10610391576101008083540402835291602001916103bc565b820191906000526020600020905b81548152906001019060200180831161039f57829003601f168201915b5050505050905090565b6000336103d48185856107d9565b60019150505b92915050565b6000336103ee8582856107eb565b6103f985858561086a565b506001949350505050565b6007805461041190610c6c565b80601f016020809104026020016040519081016040528092919081815260200182805461043d90610c6c565b801561048a5780601f1061045f5761010080835404028352916020019161048a565b820191906000526020600020905b81548152906001019060200180831161046d57829003601f168201915b505050505081565b61049a6108c9565b6104a460006108f6565b565b60606004805461034390610c6c565b6000336103d481858561086a565b6006805461041190610c6c565b60646104e96b033b2e3c9fd0803ce8000000600f610cbc565b6104f39190610cd3565b81565b606461050f6b033b2e3c9fd0803ce8000000600f610cbc565b6105199190610cd3565b6104f3906b033b2e3c9fd0803ce8000000610cf5565b336001600160a01b037f000000000000000000000000000000000000000000000000000000000000000016146105a55760405162461bcd60e51b81526020600482015260166024820152754f6e6c792063726561746f722063616e20636c61696d60501b60448201526064015b60405180910390fd5b7f000000000000000000000000000000000000000000000000000000000000000042101561060b5760405162461bcd60e51b8152602060048201526013602482015272151bdad95b9cc81cdd1a5b1b081b1bd8dad959606a1b604482015260640161059c565b600554600160a01b900460ff16156106575760405162461bcd60e51b815260206004820152600f60248201526e105b1c9958591e4818db185a5b5959608a1b604482015260640161059c565b6005805460ff60a01b1916600160a01b1790556106b7307f000000000000000000000000000000000000000000000000000000000000000060646106a86b033b2e3c9fd0803ce8000000600f610cbc565b6106b29190610cd3565b61086a565b6001600160a01b037f0000000000000000000000000000000000000000000000000000000000000000167f4a94c2c356e29a6583071e731bdacf2ca56565ba5efebcff6936eb7923b51721606461071b6b033b2e3c9fd0803ce8000000600f610cbc565b6107259190610cd3565b604080519182524260208301520160405180910390a2565b60007f0000000000000000000000000000000000000000000000000000000000000000421061076c5750600090565b610796427f0000000000000000000000000000000000000000000000000000000000000000610cf5565b905090565b6107a36108c9565b6001600160a01b0381166107cd57604051631e4fbdf760e01b81526000600482015260240161059c565b6107d6816108f6565b50565b6107e68383836001610948565b505050565b6001600160a01b03838116600090815260016020908152604080832093861683529290522054600019811015610864578181101561085557604051637dc7a0d960e11b81526001600160a01b0384166004820152602481018290526044810183905260640161059c565b61086484848484036000610948565b50505050565b6001600160a01b03831661089457604051634b637e8f60e11b81526000600482015260240161059c565b6001600160a01b0382166108be5760405163ec442f0560e01b81526000600482015260240161059c565b6107e6838383610a1d565b6005546001600160a01b031633146104a45760405163118cdaa760e01b815233600482015260240161059c565b600580546001600160a01b038381166001600160a01b0319831681179093556040519116919082907f8be0079c531659141344cd1fd0a4f28419497f9722a3daafe3b4186f6b6457e090600090a35050565b6001600160a01b0384166109725760405163e602df0560e01b81526000600482015260240161059c565b6001600160a01b03831661099c57604051634a1406b160e11b81526000600482015260240161059c565b6001600160a01b038085166000908152600160209081526040808320938716835292905220829055801561086457826001600160a01b0316846001600160a01b03167f8c5be1e5ebec7d5bd14f71427d1e84f3dd0314c0f7b2291e5b200ac8c7c3b92584604051610a0f91815260200190565b60405180910390a350505050565b6001600160a01b038316610a48578060026000828254610a3d9190610d08565b90915550610aba9050565b6001600160a01b03831660009081526020819052604090205481811015610a9b5760405163391434e360e21b81526001600160a01b0385166004820152602481018290526044810183905260640161059c565b6001600160a01b03841660009081526020819052604090209082900390555b6001600160a01b038216610ad657600280548290039055610af5565b6001600160a01b03821660009081526020819052604090208054820190555b816001600160a01b0316836001600160a01b03167fddf252ad1be2c89b69c2b068fc378daa952ba7f163c4a11628f55a4df523b3ef83604051610b3a91815260200190565b60405180910390a3505050565b600060208083528351808285015260005b81811015610b7457858101830151858201604001528201610b58565b506000604082860101526040601f19601f8301168501019250505092915050565b80356001600160a01b0381168114610bac57600080fd5b919050565b60008060408385031215610bc457600080fd5b610bcd83610b95565b946020939093013593505050565b600080600060608486031215610bf057600080fd5b610bf984610b95565b9250610c0760208501610b95565b9150604084013590509250925092565b600060208284031215610c2957600080fd5b610c3282610b95565b9392505050565b60008060408385031215610c4c57600080fd5b610c5583610b95565b9150610c6360208401610b95565b90509250929050565b600181811c90821680610c8057607f821691505b602082108103610ca057634e487b7160e01b600052602260045260246000fd5b50919050565b634e487b7160e01b600052601160045260246000fd5b80820281158282048414176103da576103da610ca6565b600082610cf057634e487b7160e01b600052601260045260246000fd5b500490565b818103818111156103da576103da610ca6565b808201808211156103da576103da610ca656fea2646970667358221220d297ffedf93aef58998a65342ce7f7ad627438fa90b96a4b466c7585b2613ad964736f6c63430008140033a2646970667358221220f854c0e8991b2cca64632089db69a5583f71cc22240542efa3be68fb1c4c656564736f6c63430008140033",
  "linkReferences": {},
  "deployedLinkReferences": {}
}