{
  "_format": "hh-sol-artifact-1",
  "contractName": "RitualAgentToken",
  "sourceName": "contracts/RitualAgentToken.sol",
  "abi": [
    {
      "inputs": [
        {
          "internalType": "string",
          "name": "_name",
          "type": "string"
        },
        {
          "internalType": "string",
          "name": "_ticker",
          "type": "string"
        },
        {
          "internalType": "address",
          "name": "_creator",
          "type": "address"
        },
        {
          "internalType": "address",
          "name": "_publicPool",
          "type": "address"
        },
        {
          "internalType": "string",
          "name": "_prompt",
          "type": "string"
        },
        {
          "internalType": "string",
          "name": "_marketCap",
          "type": "string"
        }
      ],
      "stateMutability": "nonpayable",
      "type": "constructor"
    },
    {
      "inputs": [
        {
          "internalType": "address",
          "name": "spender",
          "type": "address"
        },
        {
          "internalType": "uint256",
          "name": "allowance",
          "type": "uint256"
        },
        {
          "internalType": "uint256",
          "name": "needed",
          "type": "uint256"
        }
      ],
      "name": "ERC20InsufficientAllowance",
      "type": "error"
    },
    {
      "inputs": [
        {
          "internalType": "address",
          "name": "sender",
          "type": "address"
        },
        {
          "internalType": "uint256",
          "name": "balance",
          "type": "uint256"
        },
        {
          "internalType": "uint256",
          "name": "needed",
          "type": "uint256"
        }
      ],
      "name": "ERC20InsufficientBalance",
      "type": "error"
    },
    {
      "inputs": [
        {
          "internalType": "address",
          "name": "approver",
          "type": "address"
        }
      ],
      "name": "ERC20InvalidApprover",
      "type": "error"
    },
    {
      "inputs": [
        {
          "internalType": "address",
          "name": "receiver",
          "type": "address"
        }
      ],
      "name": "ERC20InvalidReceiver",
      "type": "error"
    },
    {
      "inputs": [
        {
          "internalType": "address",
          "name": "sender",
          "type": "address"
        }
      ],
      "name": "ERC20InvalidSender",
      "type": "error"
    },
    {
      "inputs": [
        {
          "internalType": "address",
          "name": "spender",
          "type": "address"
        }
      ],
      "name": "ERC20InvalidSpender",
      "type": "error"
    },
    {
      "inputs": [
        {
          "internalType": "address",
          "name": "owner",
          "type": "address"
        }
      ],
      "name": "OwnableInvalidOwner",
      "type": "error"
    },
    {
      "inputs": [
        {
          "internalType": "address",
          "name": "account",
          "type": "address"
        }
      ],
      "name": "OwnableUnauthorizedAccount",
      "type": "error"
    },
    {
      "anonymous": false,
      "inputs": [
        {
          "indexed": true,
          "internalType": "address",
          "name": "owner",
          "type": "address"
        },
        {
          "indexed": true,
          "internalType": "address",
          "name": "spender",
          "type": "address"
        },
        {
          "indexed": false,
          "internalType": "uint256",
          "name": "value",
          "type": "uint256"
        }
      ],
      "name": "Approval",
      "type": "event"
    },
    {
      "anonymous": false,
      "inputs": [
        {
          "indexed": true,
          "internalType": "address",
          "name": "previousOwner",
          "type": "address"
        },
        {
          "indexed": true,
          "internalType": "address",
          "name": "newOwner",
          "type": "address"
        }
      ],
      "name": "OwnershipTransferred",
      "type": "event"
    },
    {
      "anonymous": false,
      "inputs": [
        {
          "indexed": true,
          "internalType": "address",
          "name": "from",
          "type": "address"
        },
        {
          "indexed": true,
          "internalType": "address",
          "name": "to",
          "type": "address"
        },
        {
          "indexed": false,
          "internalType": "uint256",
          "name": "value",
          "type": "uint256"
        }
      ],
      "name": "Transfer",
      "type": "event"
    },
    {
      "anonymous": false,
      "inputs": [
        {
          "indexed": true,
          "internalType": "address",
          "name": "creator",
          "type": "address"
        },
        {
          "indexed": false,
          "internalType": "uint256",
          "name": "amount",
          "type": "uint256"
        },
        {
          "indexed": false,
          "internalType": "uint256",
          "name": "timestamp",
          "type": "uint256"
        }
      ],
      "name": "VestingClaimed",
      "type": "event"
    },
    {
      "inputs": [],
      "name": "CREATOR_SHARE",
      "outputs": [
        {
          "internalType": "uint256",
          "name": "",
          "type": "uint256"
        }
      ],
      "stateMutability": "view",
      "type": "function"
    },
    {
      "inputs": [],
      "name": "PUBLIC_SHARE",
      "outputs": [
        {
          "internalType": "uint256",
          "name": "",
          "type": "uint256"
        }
      ],
      "stateMutability": "view",
      "type": "function"
    },
    {
      "inputs": [],
      "name": "TOTAL_SUPPLY",
      "outputs": [
        {
          "internalType": "uint256",
          "name": "",
          "type": "uint256"
        }
      ],
      "stateMutability": "view",
      "type": "function"
    },
    {
      "inputs": [],
      "name": "agentPrompt",
      "outputs": [
        {
          "internalType": "string",
          "name": "",
          "type": "string"
        }
      ],
      "stateMutability": "view",
      "type": "function"
    },
    {
      "inputs": [
        {
          "internalType": "address",
          "name": "owner",
          "type": "address"
        },
        {
          "internalType": "address",
          "name": "spender",
          "type": "address"
        }
      ],
      "name": "allowance",
      "outputs": [
        {
          "internalType": "uint256",
          "name": "",
          "type": "uint256"
        }
      ],
      "stateMutability": "view",
      "type": "function"
    },
    {
      "inputs": [
        {
          "internalType": "address",
          "name": "spender",
          "type": "address"
        },
        {
          "internalType": "uint256",
          "name": "value",
          "type": "uint256"
        }
      ],
      "name": "approve",
      "outputs": [
        {
          "internalType": "bool",
          "name": "",
          "type": "bool"
        }
      ],
      "stateMutability": "nonpayable",
      "type": "function"
    },
    {
      "inputs": [
        {
          "internalType": "address",
          "name": "account",
          "type": "address"
        }
      ],
      "name": "balanceOf",
      "outputs": [
        {
          "internalType": "uint256",
          "name": "",
          "type": "uint256"
        }
      ],
      "stateMutability": "view",
      "type": "function"
    },
    {
      "inputs": [],
      "name": "claimVestedTokens",
      "outputs": [],
      "stateMutability": "nonpayable",
      "type": "function"
    },
    {
      "inputs": [],
      "name": "creator",
      "outputs": [
        {
          "internalType": "address",
          "name": "",
          "type": "address"
        }
      ],
      "stateMutability": "view",
      "type": "function"
    },
    {
      "inputs": [],
      "name": "decimals",
      "outputs": [
        {
          "internalType": "uint8",
          "name": "",
          "type": "uint8"
        }
      ],
      "stateMutability": "view",
      "type": "function"
    },
    {
      "inputs": [],
      "name": "initialMarketCap",
      "outputs": [
        {
          "internalType": "string",
          "name": "",
          "type": "string"
        }
      ],
      "stateMutability": "view",
      "type": "function"
    },
    {
      "inputs": [],
      "name": "launchTime",
      "outputs": [
        {
          "internalType": "uint256",
          "name": "",
          "type": "uint256"
        }
      ],
      "stateMutability": "view",
      "type": "function"
    },
    {
      "inputs": [],
      "name": "name",
      "outputs": [
        {
          "internalType": "string",
          "name": "",
          "type": "string"
        }
      ],
      "stateMutability": "view",
      "type": "function"
    },
    {
      "inputs": [],
      "name": "owner",
      "outputs": [
        {
          "internalType": "address",
          "name": "",
          "type": "address"
        }
      ],
      "stateMutability": "view",
      "type": "function"
    },
    {
      "inputs": [],
      "name": "renounceOwnership",
      "outputs": [],
      "stateMutability": "nonpayable",
      "type": "function"
    },
    {
      "inputs": [],
      "name": "symbol",
      "outputs": [
        {
          "internalType": "string",
          "name": "",
          "type": "string"
        }
      ],
      "stateMutability": "view",
      "type": "function"
    },
    {
      "inputs": [],
      "name": "totalSupply",
      "outputs": [
        {
          "internalType": "uint256",
          "name": "",
          "type": "uint256"
        }
      ],
      "stateMutability": "view",
      "type": "function"
    },
    {
      "inputs": [
        {
          "internalType": "address",
          "name": "to",
          "type": "address"
        },
        {
          "internalType": "uint256",
          "name": "value",
          "type": "uint256"
        }
      ],
      "name": "transfer",
      "outputs": [
        {
          "internalType": "bool",
          "name": "",
          "type": "bool"
        }
      ],
      "stateMutability": "nonpayable",
      "type": "function"
    },
    {
      "inputs": [
        {
          "internalType": "address",
          "name": "from",
          "type": "address"
        },
        {
          "internalType": "address",
          "name": "to",
          "type": "address"
        },
        {
          "internalType": "uint256",
          "name": "value",
          "type": "uint256"
        }
      ],
      "name": "transferFrom",
      "outputs": [
        {
          "internalType": "bool",
          "name": "",
          "type": "bool"
        }
      ],
      "stateMutability": "nonpayable",
      "type": "function"
    },
    {
      "inputs": [
        {
          "internalType": "address",
          "name": "newOwner",
          "type": "address"
        }
      ],
      "name": "transferOwnership",
      "outputs": [],
      "stateMutability": "nonpayable",
      "type": "function"
    },
    {
      "inputs": [],
      "name": "vestingClaimed",
      "outputs": [
        {
          "internalType": "bool",
          "name": "",
          "type": "bool"
        }
      ],
      "stateMutability": "view",
      "type": "function"
    },
    {
      "inputs": [],
      "name": "vestingEndTime",
      "outputs": [
        {
          "internalType": "uint256",
          "name": "",
          "type": "uint256"
        }
      ],
      "stateMutability": "view",
      "type": "function"
    },
    {
      "inputs": [],
      "name": "vestingTimeRemaining",
      "outputs": [
        {
          "internalType": "uint256",
          "name": "",
          "type": "uint256"
        }
      ],
      "stateMutability": "view",
      "type": "function"
    }
  ],
  "bytecode": "0x60c06040523480156200001157600080fd5b50604051620014683803806200146883398101604081905262000034916200040a565b838686600362000045838262000576565b50600462000054828262000576565b5050506001600160a01b0381166200008757604051631e4fbdf760e01b8152600060048201526024015b60405180910390fd5b620000928162000165565b506001600160a01b0384166080526006620000ae838262000576565b506007620000bd828262000576565b50426008819055620000d39062ed4e0062000658565b60a0526005805460ff60a01b191690556200012d836064620001036b033b2e3c9fd0803ce8000000600f62000674565b6200010f91906200068e565b62000127906b033b2e3c9fd0803ce8000000620006b1565b620001b7565b620001593060646200014d6b033b2e3c9fd0803ce8000000600f62000674565b6200012791906200068e565b505050505050620006c7565b600580546001600160a01b038381166001600160a01b0319831681179093556040519116919082907f8be0079c531659141344cd1fd0a4f28419497f9722a3daafe3b4186f6b6457e090600090a35050565b6001600160a01b038216620001e35760405163ec442f0560e01b8152600060048201526024016200007e565b620001f160008383620001f5565b5050565b6001600160a01b0383166200022457806002600082825462000218919062000658565b90915550620002989050565b6001600160a01b03831660009081526020819052604090205481811015620002795760405163391434e360e21b81526001600160a01b038516600482015260248101829052604481018390526064016200007e565b6001600160a01b03841660009081526020819052604090209082900390555b6001600160a01b038216620002b657600280548290039055620002d5565b6001600160a01b03821660009081526020819052604090208054820190555b816001600160a01b0316836001600160a01b03167fddf252ad1be2c89b69c2b068fc378daa952ba7f163c4a11628f55a4df523b3ef836040516200031b91815260200190565b60405180910390a3505050565b634e487b7160e01b600052604160045260246000fd5b600082601f8301126200035057600080fd5b81516001600160401b03808211156200036d576200036d62000328565b604051601f8301601f19908116603f0116810190828211818310171562000398576200039862000328565b81604052838152602092508683858801011115620003b557600080fd5b600091505b83821015620003d95785820183015181830184015290820190620003ba565b600093810190920192909252949350505050565b80516001600160a01b03811681146200040557600080fd5b919050565b60008060008060008060c087890312156200042457600080fd5b86516001600160401b03808211156200043c57600080fd5b6200044a8a838b016200033e565b975060208901519150808211156200046157600080fd5b6200046f8a838b016200033e565b96506200047f60408a01620003ed565b95506200048f60608a01620003ed565b94506080890151915080821115620004a657600080fd5b620004b48a838b016200033e565b935060a0890151915080821115620004cb57600080fd5b50620004da89828a016200033e565b9150509295509295509295565b600181811c90821680620004fc57607f821691505b6020821081036200051d57634e487b7160e01b600052602260045260246000fd5b50919050565b601f8211156200057157600081815260208120601f850160051c810160208610156200054c5750805b601f850160051c820191505b818110156200056d5782815560010162000558565b5050505b505050565b81516001600160401b0381111562000592576200059262000328565b620005aa81620005a38454620004e7565b8462000523565b602080601f831160018114620005e25760008415620005c95750858301515b600019600386901b1c1916600185901b1785556200056d565b600085815260208120601f198616915b828110156200061357888601518255948401946001909101908401620005f2565b5085821015620006325787850151600019600388901b60f8161c191681555b5050505050600190811b01905550565b634e487b7160e01b600052601160045260246000fd5b808201808211156200066e576200066e62000642565b92915050565b80820281158282048414176200066e576200066e62000642565b600082620006ac57634e487b7160e01b600052601260045260246000fd5b500490565b818103818111156200066e576200066e62000642565b60805160a051610d51620007176000396000818161024b015281816105a70152818161074101526107720152600081816101570152818161053a0152818161067001526106c10152610d516000f3fe608060405234801561001057600080fd5b506004361061014d5760003560e01c80638b501acc116100c3578063cc0c30391161007c578063cc0c3039146102c8578063cf9483ad146102d0578063dd62ed3e146102d8578063e74f3fbb14610311578063f0410b7c14610319578063f2fde38b1461032157600080fd5b80638b501acc1461026d5780638da5cb5b14610281578063902d55a51461029257806395d89b41146102a5578063a9059cbb146102ad578063b7cfe4c0146102c057600080fd5b8063313ce56711610115578063313ce567146101f35780633b5f19351461020257806370a082311461020a578063715018a614610233578063790ca4131461023d57806386fab45e1461024657600080fd5b806302d05d3f1461015257806306fdde0314610196578063095ea7b3146101ab57806318160ddd146101ce57806323b872dd146101e0575b600080fd5b6101797f000000000000000000000000000000000000000000000000000000000000000081565b6040516001600160a01b0390911681526020015b60405180910390f35b61019e610334565b60405161018d9190610b47565b6101be6101b9366004610bb1565b6103c6565b604051901515815260200161018d565b6002545b60405190815260200161018d565b6101be6101ee366004610bdb565b6103e0565b6040516012815260200161018d565b61019e610404565b6101d2610218366004610c17565b6001600160a01b031660009081526020819052604090205490565b61023b610492565b005b6101d260085481565b6101d27f000000000000000000000000000000000000000000000000000000000000000081565b6005546101be90600160a01b900460ff1681565b6005546001600160a01b0316610179565b6101d26b033b2e3c9fd0803ce800000081565b61019e6104a6565b6101be6102bb366004610bb1565b6104b5565b61019e6104c3565b6101d26104d0565b6101d26104f6565b6101d26102e6366004610c39565b6001600160a01b03918216600090815260016020908152604080832093909416825291909152205490565b61023b61052f565b6101d261073d565b61023b61032f366004610c17565b61079b565b60606003805461034390610c6c565b80601f016020809104026020016040519081016040528092919081815260200182805461036f90610c6c565b80156103bc5780601f10610391576101008083540402835291602001916103bc565b820191906000526020600020905b81548152906001019060200180831161039f57829003601f168201915b5050505050905090565b6000336103d48185856107d9565b60019150505b92915050565b6000336103ee8582856107eb565b6103f985858561086a565b506001949350505050565b6007805461041190610c6c565b80601f016020809104026020016040519081016040528092919081815260200182805461043d90610c6c565b801561048a5780601f1061045f5761010080835404028352916020019161048a565b820191906000526020600020905b81548152906001019060200180831161046d57829003601f168201915b505050505081565b61049a6108c9565b6104a460006108f6565b565b60606004805461034390610c6c565b6000336103d481858561086a565b6006805461041190610c6c565b60646104e96b033b2e3c9fd0803ce8000000600f610cbc565b6104f39190610cd3565b81565b606461050f6b033b2e3c9fd0803ce8000000600f610cbc565b6105199190610cd3565b6104f3906b033b2e3c9fd0803ce8000000610cf5565b336001600160a01b037f000000000000000000000000000000000000000000000000000000000000000016146105a55760405162461bcd60e51b81526020600482015260166024820152754f6e6c792063726561746f722063616e20636c61696d60501b60448201526064015b60405180910390fd5b7f000000000000000000000000000000000000000000000000000000000000000042101561060b5760405162461bcd60e51b8152602060048201526013602482015272151bdad95b9cc81cdd1a5b1b081b1bd8dad959606a1b604482015260640161059c565b600554600160a01b900460ff16156106575760405162461bcd60e51b815260206004820152600f60248201526e105b1c9958591e4818db185a5b5959608a1b604482015260640161059c565b6005805460ff60a01b1916600160a01b1790556106b7307f000000000000000000000000000000000000000000000000000000000000000060646106a86b033b2e3c9fd0803ce8000000600f610cbc565b6106b29190610cd3565b61086a565b6001600160a01b037f0000000000000000000000000000000000000000000000000000000000000000167f4a94c2c356e29a6583071e731bdacf2ca56565ba5efebcff6936eb7923b51721606461071b6b033b2e3c9fd0803ce8000000600f610cbc565b6107259190610cd3565b604080519182524260208301520160405180910390a2565b60007f0000000000000000000000000000000000000000000000000000000000000000421061076c5750600090565b610796427f0000000000000000000000000000000000000000000000000000000000000000610cf5565b905090565b6107a36108c9565b6001600160a01b0381166107cd57604051631e4fbdf760e01b81526000600482015260240161059c565b6107d6816108f6565b50565b6107e68383836001610948565b505050565b6001600160a01b03838116600090815260016020908152604080832093861683529290522054600019811015610864578181101561085557604051637dc7a0d960e11b81526001600160a01b0384166004820152602481018290526044810183905260640161059c565b61086484848484036000610948565b50505050565b6001600160a01b03831661089457604051634b637e8f60e11b81526000600482015260240161059c565b6001600160a01b0382166108be5760405163ec442f0560e01b81526000600482015260240161059c565b6107e6838383610a1d565b6005546001600160a01b031633146104a45760405163118cdaa760e01b815233600482015260240161059c565b600580546001600160a01b038381166001600160a01b0319831681179093556040519116919082907f8be0079c531659141344cd1fd0a4f28419497f9722a3daafe3b4186f6b6457e090600090a35050565b6001600160a01b0384166109725760405163e602df0560e01b81526000600482015260240161059c565b6001600160a01b03831661099c57604051634a1406b160e11b81526000600482015260240161059c565b6001600160a01b038085166000908152600160209081526040808320938716835292905220829055801561086457826001600160a01b0316846001600160a01b03167f8c5be1e5ebec7d5bd14f71427d1e84f3dd0314c0f7b2291e5b200ac8c7c3b92584604051610a0f91815260200190565b60405180910390a350505050565b6001600160a01b038316610a48578060026000828254610a3d9190610d08565b90915550610aba9050565b6001600160a01b03831660009081526020819052604090205481811015610a9b5760405163391434e360e21b81526001600160a01b0385166004820152602481018290526044810183905260640161059c565b6001600160a01b03841660009081526020819052604090209082900390555b6001600160a01b038216610ad657600280548290039055610af5565b6001600160a01b03821660009081526020819052604090208054820190555b816001600160a01b0316836001600160a01b03167fddf252ad1be2c89b69c2b068fc378daa952ba7f163c4a11628f55a4df523b3ef83604051610b3a91815260200190565b60405180910390a3505050565b600060208083528351808285015260005b81811015610b7457858101830151858201604001528201610b58565b506000604082860101526040601f19601f8301168501019250505092915050565b80356001600160a01b0381168114610bac57600080fd5b919050565b60008060408385031215610bc457600080fd5b610bcd83610b95565b946020939093013593505050565b600080600060608486031215610bf057600080fd5b610bf984610b95565b9250610c0760208501610b95565b9150604084013590509250925092565b600060208284031215610c2957600080fd5b610c3282610b95565b9392505050565b60008060408385031215610c4c57600080fd5b610c5583610b95565b9150610c6360208401610b95565b90509250929050565b600181811c90821680610c8057607f821691505b602082108103610ca057634e487b7160e01b600052602260045260246000fd5b50919050565b634e487b7160e01b600052601160045260246000fd5b80820281158282048414176103da576103da610ca6565b600082610cf057634e487b7160e01b600052601260045260246000fd5b500490565b818103818111156103da576103da610ca6565b808201808211156103da576103da610ca656fea2646970667358221220d297ffedf93aef58998a65342ce7f7ad627438fa90b96a4b466c7585b2613ad964736f6c63430008140033",
  "linkReferences": {},
  "deployedLinkReferences": {}
}